:020000040800F2
:10000000900A002079020008A95A00083755000814
:10001000F15900082B2A0008716000080000000058
:10002000000000000000000000000000AD5A0008C1
:10003000FD35000800000000AB5A0008AF5A000868
:10004000930200089302000893020008930200083C
:10005000930200089302000893020008930200082C
:10006000930200089302000893020008F13500088B
:10007000930200089302000893020008930200080C
:1000800093020008930200089302000893020008FC
:1000900065600008930200089302000893020008BC
:1000A00093020008930200089302000893020008DC
:1000B00093020008930200089302000893020008CC
:1000C00093020008930200089302000893020008BC
:1000D0009302000859600008930200089302000888
:1000E000930200089302000893020008930200089C
:1000F000930200089302000893020008930200088C
:10010000930200089302000893020008930200087B
:10011000930200089302000893020008930200086B
:10012000930200089302000893020008930200085B
:1001300000F002F800F090F80AA090E8000C824469
:100140008344AAF10107DA4501D100F085F8AFF246
:10015000090EBAE80F0013F0010F18BFFB1A43F0A5
:10016000010318474C6E00006C6E0000103A24BF6B
:1001700078C878C1FAD8520724BF30C830C144BF0C
:1001800004680C607047000000230024002500264E
:10019000103A28BF78C1FBD8520728BF30C148BFEA
:1001A0000B6070476E2900F09582702900F0DF83A4
:1001B000662906F0E084652906F0DD84672906F0EB
:1001C000DA84612906F0D98403681B0A28BF41F04C
:1001D0008001692900F04282642900F03F8275297C
:1001E00000F03C826F2900F06C83782900F0AB832B
:1001F000E92900F00783E42900F00483F52900F0E1
:100200000183EF2900F06983F82900F0AA830368CD
:10021000DB0928BF41F08001632901F04781732980
:1002200001F04C81E32901F05781F32901F05C8151
:10023000002070471FB500F0F7FC040000200021EB
:1002400006F050F9401C60600020002106F060F9C3
:10025000E0601FBD10B510BD01F0D9F91146FFF7E0
:10026000E9FF06F02DF801F033FD03B4FFF7F2FFCC
:1002700003BC01F061FF00000948804709480047BE
:10028000FEE7FEE7FEE7FEE7FEE7FEE7FEE7FEE746
:10029000FEE7FEE704480549054A064B70470000A3
:1002A0002D5B00083101000890040020900A002016
:1002B000900600209006002010B5044600F054F986
:1002C0000068005DC00602D504F1200010BD204684
:1002D00010BD00007CB51D4616460C00009001D0F4
:1002E0002044401E074B7B442A4669460190304615
:1002F00000F009FA05461CB10020694600F016FA24
:1003000028467CBD4D04000070B5064600F034F967
:100310000468054630460A22002100F049FC2C60A2
:1003200070BD10B5431C02E010F8011B71B18107CC
:10033000FAD14FF0013202C88C1A8C4314EAC21170
:10034000F9D0C01A0A0603D0C01E10BDC01A10BDD5
:100350000A0401D0801E10BD0902FCD0401E10BD51
:10036000032A40F2308010F0030C00F0158011F8E1
:10037000013BBCF1020F624498BF11F801CB00F8B9
:10038000013B38BF11F8013BA2F1040298BF00F80D
:1003900001CB38BF00F8013B11F0030300F02580CA
:1003A000083AC0F0088051F8043B083A51F804CBF1
:1003B000A0E80810F5E7121D5CBF51F8043B40F8B7
:1003C000043BAFF30080D20724BF11F8013B11F8C2
:1003D00001CB48BF11F8012B24BF00F8013B00F806
:1003E00001CB48BF00F8012B704710B5203AC0F090
:1003F0000B80B1E81850203AA0E81850B1E8185026
:10040000A0E81850BFF4F5AF5FEA027C24BFB1E862
:100410001850A0E8185044BF18C918C0BDE81040D3
:100420005FEA827C24BF51F8043B40F8043B08BFDC
:100430007047D20728BF31F8023B48BF11F8012BA3
:1004400028BF20F8023B48BF00F8012B70474FF04F
:1004500000020429C0F0128010F0030C00F01B8091
:10046000CCF1040CBCF1020F18BF00F8012BA8BF9F
:1004700020F8022BA1EB0C0100F00DB85FEAC17C63
:1004800024BF00F8012B00F8012B48BF00F8012B16
:1004900070474FF0000200B5134694469646203947
:1004A00022BFA0E80C50A0E80C50B1F12001BFF42D
:1004B000F7AF090728BFA0E80C5048BF0CC05DF893
:1004C00004EB890028BF40F8042B08BF704748BFE1
:1004D00020F8022B11F0804F18BF00F8012B704755
:1004E0004FF0013C50F8042B51F8043B9A4221D1C3
:1004F000A2EB0C03934313EACC1317D150F8042B4F
:1005000051F8043B9A4215D1A2EB0C03934313EA32
:10051000CC130BD150F8042B51F8043B9A4209D16B
:10052000A2EB0C03934313EACC13DBD04FF0000093
:10053000704700BFD01A01BAB1FA81F101F0180179
:1005400022FA01F0CB40C1F12001DBB2C0B2C01AE7
:100550002CFA01F3D11A914311EAC311E6D1704785
:10056000704770477047000010B500F05DFB001D3C
:1005700010BD00BF715F0000004870472C040020D0
:1005800010B5FFF7F9FF006810BD10B50446FFF77E
:10059000F3FF046010BD70B5044685690068C106AC
:1005A00001D5302600E02026C00707D070BDD4E971
:1005B000012130469047206A401C20626D1EF6D50E
:1005C00070BD70B5044685690078C00707D170BD5D
:1005D000D4E9012120209047206A401C20626D1E32
:1005E000F6D570BD09684A0501D540B27047C90506
:1005F000FCD500B2704709684A0501D5C0B2704702
:10060000C905FCD580B2704770B50C460546012A75
:1006100005D02878800600D5EA69002302E001238E
:1006200005E05B1C934202D2E05C0028F9D1A86986
:10063000E618C01AA861286A184428622846FFF7FD
:10064000AAFF04E0D5E9012114F8010B9047B44258
:10065000F8D32846FFF7B5FF70BD00002DE9F04143
:100660000646002410687529314616A510D0FFF7FC
:10067000B9FF002802DA404213A507E031688A0773
:1006800001D512A502E0490704D511A5012401E016
:10069000FFF7B1FF00210A2206F1240709E0B0FBB1
:1006A000F2FCB0FBF2F302FB1C0030307854184629
:1006B000491C0028F3D123462A463046BDE8F041C4
:1006C00000F004BB000000002D0000002B00000023
:1006D0002000000011680268006A530501D5087007
:1006E0000AE0D30501D5088006E0130603D5C2173A
:1006F000C1E9000200E008600120704701694A1C5E
:1007000002610878704700B58FB0CDE90131002152
:10071000059105497944CDE903101146684600F07A
:1007200031F90FB000BD0000E5FFFFFF0A6802F8D5
:10073000010B0A607047D1E900239A4202D2531C90
:100740000B601070704700002DE9FF5F15468A4668
:100750000446DFF8AC80F8440027D8E900103E4694
:10076000CDE9001010E03AF816106A4602A800F031
:100770002EFF411C07D02178890603D5E26939187C
:1007800091420DD80744761C2078800602D5E06996
:10079000B84205DDAE42E6DB3AF816000028E2D1A9
:1007A000A069C01BA0612046FFF7F5FED8E9001044
:1007B000CDE90010002017E03AF818106A4602A8A8
:1007C00000F005FFB0F1FF3F81460BD000250DF191
:1007D000080B05E0D4E901211BF8050090476D1CCA
:1007E0004D45F7D308F10100B0428046E4DB206AB2
:1007F000384420622046FFF7E4FEBDE8FF9F00007A
:10080000026600002DE9F0418046D21D22F0070269
:100810000025D2E90002F52915A614D0011E72F1B7
:10082000000106DA0023D0EB030063EB020211A6FD
:1008300008E0D8F800108B0701D50FA602E04907A1
:1008400001D50EA601251146002408F1240704E075
:1008500000F0EEF930323A55641C50EA0102F7D14B
:100860002B46324621464046BDE8F04100F02EBA04
:10087000000000002D0000002B0000002000000000
:1008800030B4002100F1240408E002F00705D2088A
:10089000303542EA4372DB086554491C52EA0305CD
:1008A000F3D10468002310A2250707D5A40600D4BD
:1008B00021B1C46901230DA2641EC46130BC00F0E3
:1008C00005BA10B5044621461068FFF794FE0246AB
:1008D0002046BDE810400023D2E7D21D22F00701D8
:1008E000D1E90023CCE70000000000003000000048
:1008F000F0B40D460188090502D5214C7C4402E084
:100900001F4C7C440E34002100F1240608E002F064
:100910000F071209E75D42EA03721B097754491C6D
:1009200052EA0307F3D102780023120704D5702D91
:1009300006D009B1022311342246F0BC00F0C6B93A
:1009400001231034F8E770B504460D4621461068BF
:10095000FFF751FE024629462046BDE870400023BD
:10096000C6E7D21D22F00703D3E90023C0E70368DE
:10097000126843F0200303600823C3610023B7E734
:10098000646400002DE9F05F894604464FF0000AD8
:10099000DFF874B1FB44C0F820A02046E168884726
:1009A000002874D0252806D0D4E901219047206A78
:1009B000401C2062F1E700265F462046E168884738
:1009C0002028054607DB312D05D2781910F8200CB8
:1009D00008B10643F1E7B00701D526F00406C4F8D4
:1009E0001CA00027C4F818A02A2D09D0284605F01D
:1009F000E4FB38B304EB8708303DC8F8185019E021
:100A000059F8041B204604EB87029161E16888478E
:100A1000012F054618D1E069002820DA26F02006CB
:100A20001DE0D8F8180000EB800005EB40003038DE
:100A3000C8F818002046E1688847054605F0BDFB68
:100A40000028EED1012F0AD02E2D08D12046E168D2
:100A500088477F1C0546022F46F02006C4DBA069AC
:100A6000002803DA404246F00106A061F00701D0F9
:100A700026F010066C2D0BD0682D09D04C2D39D0E6
:100A80006A2D35D0742D35D07A2D33D016E038E06C
:100A9000E1682F4620468847B842054609D16C2FA9
:100AA00026D04FF48060E16806432046884705461B
:100AB00004E06C2F1AD04FF4807006430DB3A5F1FB
:100AC0004100192802D8203546F400664A462946D6
:100AD000204626604E46FFF765FB80B101280BD00B
:100AE000F61D26F0070000F1080956E74020E4E76C
:100AF0008020D8E70020D6E706F104094DE7284614
:100B000052E7206ABDE8F09FF46300000FB40023B1
:100B100000B589B00CA900910B99CB60214B7B44A7
:100B20000693214B7B44079304236FF00042CDE9E9
:100B300001321E4A7A446B4608920246002006F0B3
:100B40007EF809B05DF814FB70B506464FF0FF3033
:100B500015460C46324686B00091CDE90101694642
:100B60000020049004A8FFF7D1FF02460498211842
:100B700025B108B1084600E0204628600498002806
:100B80000DD0002A02DD0098884208D03246081BAA
:100B900069460094CDE9010404A8FFF7B7FF06B049
:100BA00070BD0000CF090000E709000083010000CC
:100BB0002DE9F04791460F4680460446002614F87A
:100BC000015B2DB1FFF7D0FC0068405DC007F6D196
:100BD0002B2D02D02D2D18D0641E4A4639462046B2
:100BE00000F0A6FC27B13968A14201D1C7F8008006
:100BF0004FF0020471050BD54042002803DDFFF7DA
:100C0000BBFC0460A007BDE8F08746F48066E4E71B
:100C10000028F8DAFFF7B0FC04606FF00040F2E75C
:100C2000004870472C040020004870474C04002006
:100C300030B5B0F10A024FEA900E71F100034EEAAE
:100C4000817EB0EB0E0061EB91014FEA101E4EEA7F
:100C5000017E10EB0E0041EB11114FEA102E4EEA0F
:100C6000016E10EB0E0041EB11214FEA104E4EEADF
:100C7000014E10EB0E0041EB1141401841F1000113
:100C80004FEAD00040EA41704FEAD10110EB8005F5
:100C90004FEA810444EA907444EB01046D1944EB7B
:100CA0000404521BA3414FF0000348BF0A3200D591
:100CB00030BD401C41F1000130BD10B50446FFF7C6
:100CC00053FC0068005D00F0010010BD2DE9F04705
:100CD0000D4699469246044600F1240801688806AC
:100CE00004D5E06921F01001216000E00120A84254
:100CF00001DD471B00E00027A1697A1902EB09001A
:100D0000081AA0612078C00602D42046FFF743FCF1
:100D1000002608E0D4E901211AF806009047206A6D
:100D2000401C761C20624E45F4DB2078C0060AD5B4
:100D30002046FFF730FC06E0D4E90121302090473F
:100D4000206A401C2062381EA7F10107F4DC07E08E
:100D5000D4E9012118F805009047206A401C206260
:100D6000281EA5F10105F3DC2046FFF72AFC2078B8
:100D7000000602D50220BDE8F0870120FBE770479E
:100D80002DE9FF4F0C461E464FF0FF378BB0D2E9DE
:100D90000001DDF860800A908A46C1F30A5505B962
:100DA0003D46002108464FF00000BAF1000F00F464
:100DB000400005DA00EB80004FF4400101EA5000EA
:100DC0004FEA9059B9F1010F00DDB9460A9850EA8F
:100DD0004A000ED044F61050A5F2FF3545432F14BB
:100DE000B8F1000F1ED07542291E1EDDC9F10002A8
:100DF0001CE0B8F1010F4FF0000001D0302103E0FA
:100E0000F24305E02154401CB042FBDB3046002297
:100E1000002121540B99C1F80880C1E900200FB0CE
:100E2000BDE8F08FBD1B6D1CDEE74A4600DA694263
:100E300006A800F0DBFE06AB93E8070003AB83E8EF
:100E4000070050460A9901F091F98DE80700A0F5D6
:100E500000501F3800900398002D0ADD42F21F0158
:100E60004A460844002303A90390684601F03CFC6D
:100E700009E0A0F500504A461F38002303A903905B
:100E8000684601F05BFC8DE807000004000C03D00D
:100E90004FF0FF30410800E01046B8F1000F03D0DA
:100EA0000022009215461EE0751E05D4FFF7C0FE15
:100EB000303262556D1EF9D5B3460122084302D087
:100EC00000227F1C04E02078302801D100227F1E00
:100ED000002A099784D01DE0112D07DAFFF7A8FE3C
:100EE000303262556D1C50EA0102F5D1084302D040
:100EF0000098C8B10EE00021681E05E0235C625C2A
:100F000063542254401E491C8142F7DBAB46A81BA8
:100F1000401E0990002004F80B000B98099AC0F8B5
:100F20000880C0E9002B7AE711264FF0000857E748
:100F30002DE9F04F88460446D21D22F0070191B0FA
:100F4000D1E90001CDE90A0105F093F802460B98BA
:100F5000C00F01D02D2007E02068810701D52B208C
:100F600002E0202101EAC000032A099001D0072AEB
:100F700005DB03464146204600F06EFB0BE120787E
:100F8000800601D5E06900E00620B8F1650F8146D2
:100F900006D0B8F1660F18D0B8F1670F70D131E004
:100FA0000020B9F1110F009001DB112301E009F1DC
:100FB00001030AAA01A90CA8FFF7E2FEDDE90C7003
:100FC000002609F10105834647E001204B460090C9
:100FD0004FF000470AAA01A90CA8FFF7D1FEDDE9EE
:100FE0000DB00C995D46002610B909F101000D18ED
:100FF000B9EB050003D4C0F1FF3609F10105A5EBFB
:1010000009002BE0B9F1010F01DA4FF001090020CE
:10101000B9F1110F0090484601DD112300E00346AD
:101020000AAA01A90CA8FFF7ABFEDDE90C704D463A
:1010300000268346207800070AD4AB4500DA5D46D7
:1010400001A8012D04DD411911F8011C302907D038
:101050004F4502DA17F1040F04DA012082460FE04F
:101060006D1EEEE7002F02DCED1B3E4403E0781C12
:10107000A84200DD7D1CB81B00F1010A4FF00047BB
:101080002078000703D4AA4501DB4FF0FF3A002186
:10109000B7F1004F0DF143088DF8431024D0022022
:1010A0002B23002F01DA7F422D230A21021EA0F1FB
:1010B000010000DC5FB197FBF1FC97FBF1F201FB53
:1010C0001C7C17460CF1300C08F801CDEEE7A8F1B6
:1010D000010003702188090501D5452100E0652143
:1010E000A0F1010800F8011C09980FA9A1EB08075D
:1010F000FF1D00B10120411901EBEA70A1693844DC
:10110000081A401EA0612078C00602D42046FFF7CE
:1011100042FA099828B1D4E901219047206A401C7D
:1011200020622078C00622D52046FFF734FA1EE060
:10113000002E04DBB34502DD01A8805D00E0302015
:10114000D4E901219047206A401C2062761CAAF154
:1011500001005FEA000A0AD1FFF766FDC068016876
:10116000405CD4E901219047206A401C2062281E7F
:10117000A5F10105DCDC07E0D4E9012118F8010B39
:101180009047206A401C2062381EA7F10107F3DC5B
:101190002046FFF716FA032011B041E62DE9F04F83
:1011A00004460D46D21D22F0070089B0D0E9009711
:1011B0004846394604F05DFF0246F80F01D02D2362
:1011C00007E02068810701D52B2302E0202101EAF6
:1011D000C0038DF820300BB1012000E00020032A6D
:1011E000824601D0072A04DB2946204600F034FA63
:1011F0003FE12078800601D40D2500E0E569C7F3C2
:101200000A560D2D49DA00214FEA175B08464FF0C8
:101210000000002F00F4400007DA00EB80004FF4DC
:10122000400100EBD07001EA60008115012901DD69
:101230004FF0FF3100224FEA850CBCF1180F06D3A6
:101240001346ACF118004FF08052C24003E04FF457
:10125000801323FA0CF30CF10C0CBCF1200F04D317
:10126000ACF1200C09FA0CF001E007FA0CF00029AF
:101270004FF0004801DD18B90FE00ED140450CD306
:1012800019EB02095F4121B9404502D19F4329EA88
:101290000209BBEB175F00D0761C2088000502D541
:1012A0007B48784402E07A487844193808AA302309
:1012B00002F80A30037C0AF10101002E0AF1020A49
:1012C00053546A4602DC4FF0300101E04FF0310127
:1012D0004FF001088DF8001002D0A6F2FF3603E0AF
:1012E00059EA470100D06B4E002D02DC2178090736
:1012F00004D54FF002082E218DF80110C4460021BC
:101300000BE0C7F303433F01C35C491C6D1E02F8A9
:101310000830052908F1010801DA002DF1DC00216F
:101320000CE000EB1973491C1B786D1E082902F8AC
:1013300008304FEA091908F1010801DA002DF0DC44
:1013400021688B0602D516E0A8F10108E04505DD0D
:1013500002EB080313F8013C302BF5D0B8F1000F75
:1013600009DD02EB080313F8013C2E2B03D109071A
:1013700001D4A8F10108002D05DD3E2102F8081076
:101380006D1E08F10108407C002E02F8080008F1EB
:10139000010804DA2D20764202F8080002E02B2032
:1013A00002F808000A214FF47A70864208F1010819
:1013B0000BDB96FBF0F3303302F8083096FBF0F3CA
:1013C00008F1010800FB136601E0642E0CDB6420C9
:1013D00096FBF0F3303302F8083096FBF0F308F197
:1013E000010800FB136601E00A2E06DB96FBF1F014
:1013F000303002F8080008F1010896FBF1F001FB1B
:101400001060303002F80800A16908F1010808EB0B
:10141000050202EB0A00081AA0612078C00602D477
:101420002046FFF7B8F8216A08AE01EB0A002062F7
:1014300004E0D4E9012116F8010B9047BAF1010A42
:10144000F7D22078C00602D52046FFF7A4F86E46F2
:1014500009E016F8010B3E280FD0D4E9012190478E
:10146000206A401C2062B8F10108F2D22046FFF742
:10147000A8F809B00320BDE8F08F206A2844206254
:1014800003E0D4E90121302090476D1EEBD3F8E74B
:101490000A5B000002FCFFFF10B5436913B1AFF314
:1014A000008001E0FFF7B0F8012010BD127800F1D4
:1014B00024010A7000224A700122EDE711684FF002
:1014C000FF32E9E710B5436913B1AFF3008001E0E3
:1014D000FFF73AF9012010BD128800F1240182843F
:1014E0000022C2840122EDE711684FF0FF32E9E7E4
:1014F000426842B1016811F8013B23B1521EC0E9B4
:101500000012184670470121C160881E704742686A
:101510005AB1C368016843B983688B4205D0491E3C
:10152000521CC0E90012002070474FF0FF30704796
:101530002DE9F05F824615468B4600270AF101042B
:10154000B9460078302801D09DB113E014F8010BA2
:101550000127782803D0582801D045B10AE00DB101
:10156000102D07D1002714F8010B102502E00825E3
:1015700000E00A250026B0460EE005FB080005FB4A
:1015800006F101271FFA80F801EB1046B6F5803FFF
:1015900000D3B94614F8010B294600F09DF8002845
:1015A000EBDABBF1000F05D00FB1641E00E054462A
:1015B000CBF80040B9F1000F06D0FEF7DDFF0221A5
:1015C0000160C81EBDE8F09F48EA0640FAE770B522
:1015D00016460C460546FEF7C7FF036893F801015F
:1015E000012806D0FF2C0FD8185D68B101202C709F
:1015F00070BDD3F807013246214603F207130344B6
:101600002846BDE8704018474FF0FF3070BD754662
:10161000FFF706FBAE4605006946534620F007007B
:10162000854618B020B5FEF735FEBDE820404FF0E6
:1016300000064FF000074FF000084FF0000B21F0BC
:101640000701AC46ACE8C009ACE8C009ACE8C00989
:10165000ACE8C0098D4670472DE9F0411F460446AD
:1016600003260168072A01F4006004DB08B116A50F
:1016700005E016A503E008B115A500E015A521F0C9
:1016800010002060A069C01EA0610FB1401EA061C3
:101690002046FEF780FF4FB1D4E90121384690473C
:1016A000206A401C2062C01C206206E0206AFAE723
:1016B000D4E9012115F8010B9047761EF8D2204697
:1016C000FEF77FFFBDE8F0814E414E006E616E0077
:1016D000494E4600696E66003A2800D2303820F044
:1016E0002002412A01D3A2F13700884201D34FF0F2
:1016F000FF3070472DE9FF4F06468BB00878FF2872
:1017000006D0491C2D2805D000244FF0000908E020
:1017100000200CE00124F8E709EB8903491C00EBE9
:1017200043090878FF28F7D114B1C9F100008146B8
:10173000107800252C46AA4629462D2801D02B28B2
:1017400004D1521C2D2813D0002082468B461078DD
:10175000FF280FD04FF0000C0A21521CA5FB017886
:1017600004FB018105FB0C11C5194BEB0104EEE7ED
:101770000120EAE7002108464FF00000BAF1000F0F
:1017800002D000EB80004008C0F38157012F01DD3B
:101790004FF0FF370E9955EA040009EB01080BD012
:1017A0004FF0020918F5FA7F16DA4FEACA70002FD7
:1017B000706008DD012007E04FEACA70C6E900B09A
:1017C0000FB0BDE8F08F00203060FEF7D5FEC0F806
:1017D00000901821084616E0B8F5FA7F18DD002FB2
:1017E00002DAF748784401E0F6487844D0E900107E
:1017F000C6E9001040EACA707060FEF7BDFEC0F88E
:101800000090142108460FB0BDE8F04F05F0B0B9C4
:10181000002108464FF00000B8F10001099002DAFB
:10182000C7F1000200E03A4601DAC8F1000106A85B
:1018300000F0DCF906AB93E8070003AB83E8070090
:1018400044F23E005BEA04010090584604D144F2A1
:101850001E012C465D460091210C0904014306D16E
:101860000099240444EA15442D041039009104F031
:101870007F41014306D10099240244EA15642D02F8
:101880000839009104F07041014306D10099240108
:1018900044EA15742D01091F009104F040410143F1
:1018A00006D10099A40044EA9574AD00891E009108
:1018B00004F00041084304D100986D196441401EB2
:1018C00000904FF001033A466846B8F1000FCDE9A9
:1018D000014503A902DD00F046FF01E000F019FF19
:1018E000BAF1000F04460D4601D084F000440021F7
:1018F00008464FF00000099940F2FF77484010F089
:101900000C0F07D124F00040284303D0C4F30A5041
:10191000B84212D1FEF730FEC0F80090C4F30A506E
:10192000B8420AD1A8487844D0E90010C6E90010AE
:1019300004F000410843706042E7C6E900543FE705
:101940002DE9FF4F1F464FF0000A4FF0FF38454684
:1019500091B0D7E90146CDF83CA0FFF765F9C06822
:101960000168405C1090B96912986D1C8847396A0B
:10197000814688470028F6D1B9F1FF3F0AD0002EF2
:1019800024F4D06411DDB9F12B0F08D0B9F12D0F7B
:101990000BD102E0404615B013E744F48064B96906
:1019A00012986D1C8847761E8146600504A901D5F2
:1019B0002D2000E02B20002E01F1010B0DF130084D
:1019C0008DF810003FDDB9F1690F08D0B9F1490F6A
:1019D00005D0B9F16E0F02D0B9F14E0F1CD13B46C4
:1019E00001A8009580E85002DDE912126FF00200B4
:1019F00005F029F9C11CCED10EE0B96912986D1C11
:101A0000884781461398761E44F4007405600F9849
:101A1000401C002E0F9016DDB9F1300FEDD0B9F15A
:101A2000780F02D0B9F1580F0DD10F9801280AD1C3
:101A30003B46CDE90054DDE91212001F029605F085
:101A400000F9C11CA7D1109989453ED144F080040A
:101A500006E01399681CAAF1010A44F400740860B6
:101A6000B9696D1C1298761E884730288146F0D0DF
:101A70002BE01099894505D1200603D4761E44F049
:101A8000800418E0484604F098FB08B3761E0DF178
:101A900023018B4544F4007408D2A9F130000BF8FF
:101AA000010B200607D5AAF1010003E0200602D4AD
:101AB0000AF101008246A00502D51399681C08604E
:101AC000B96912986D1C88478146002ED1DC53E01D
:101AD000002E51DDB9F1650F02D0B9F1450F4BD1A0
:101AE000A00549D5B9696D1C1298761E24F440747E
:101AF0008847002E81460CDD2B2804D0B9F12D0F2C
:101B000007D144F48074B96912986D1C8847761E19
:101B10008146E00501D52D2100E02B2108F8011BAD
:101B2000CDF8008021E0761E0DF13901884544F49E
:101B300000740CD2A9F1300010F0FF0088F800000A
:101B400002D10099884509D908F1010806E0E005AD
:101B500001D51E4801E042F20F708246B969129821
:101B60006D1C8847814613980560002E04DD4846A9
:101B700004F023FB0028D6D1F96912988847FF208A
:101B800053468BF8000088F8000000200A900B9064
:101B900004AA0CA90AA8FFF7ADFDA00502D46FF0B6
:101BA0000100F8E614F0240F12D0E0071CD13868C9
:101BB000DDE90A12031D3B600068C0E9001213E072
:101BC000F0570000E2570000A6560000F1D8FFFFD2
:101BD0000AA9684604F080FAE00705D13868009A3F
:101BE000011D3960006802602846D4E62DE9F047FF
:101BF000814616468AB0354878440DC88DE80D00F8
:101C000032487844801C03AC0DC884E80D0041F6CE
:101C10009B300844372190FBF1F290FBF1F5A5F1E0
:101C2000800501FB12041B3C02D56442012000E048
:101C30000020DFF898A080460027FA44AAF1BE0AE7
:101C40000EE0E0070AD03246684607EB4701012361
:101C50000AEB810100F072FD8DE8070064107F1C23
:101C6000002CEED1194F7F44AE3F19E0E80715D0A4
:101C700007EB04100DF1180A90E80E008AE80E0038
:101C8000C068F04201D1981908903246012306A994
:101C900003A800F053FD03AB83E807006D10641C3C
:101CA000002DE3D14FF0010332466946B8F1000F31
:101CB00003A802D000F018FD01E000F03FFDC9E9E3
:101CC0000001C9F808200AB0BDE8F08744520000BE
:101CD00010B50446AFF300802046BDE81040FEF783
:101CE000C4BA00002DE9FF4F1F464FF03C0987B0F2
:101CF0004FF00042DDE9141001F10108DDF858A0B1
:101D000002EA4050039000200590834605460446B1
:101D10000490B969461E08988847AAF1010A029002
:101D2000BAF1000F3BDD02982E2815D01021FFF7E5
:101D3000D3FC00282EDB4FF0010B0599014317D08F
:101D4000B9F1000F0BDB4A46C11700F0FBF9054360
:101D50000C43A9F1040905E0012004900BE008B14F
:101D600045F0010501200590049820B9361D02E0D8
:101D7000049800B1361FB969089808F1010888472E
:101D8000BBF1000FAAF1010A0290C9D00999C1F86C
:101D90000080C5E70298702808D0502806D0F9695D
:101DA00008988847BBF1000F14D04FE00020029044
:101DB0000120BBF1000F049009D0B969089808F11F
:101DC00001088847AAF10109B9F1000F07DCF96998
:101DD000089888476FF001000BB0BDE8F08F2B2802
:101DE00004D02D280CD14FF0FF300490B969089829
:101DF00008F101088847A9F10109B9F1000FE6DDF2
:101E0000411CE4D00A21FFF767FC0028DFDB0299C0
:101E100008F1010801EB810100EB41000290B96972
:101E2000089888470A21FFF757FC099AA9F1010988
:101E3000B9F1000FC2F8008001DD0028E7DAF96986
:101E4000089888470499029800FB016655EA040047
:101E500004D004F04041090002D006E0039898E065
:101E6000A40044EA9574AD00B61E04F000410800D9
:101E700002D16D196441761E159810F0240F03D01D
:101E80004FF00B095C4803E04FF028096FF07D002C
:101E90008246564507DAAAEB06018944B9F1410F9B
:101EA00001DD4FF0410901200021A9F1010200F0FC
:101EB00049F9024628400B462140084301D0012140
:101EC00000E00021501E029143F1FF3128402140E3
:101ED000084301D0012000E000200299834651EA26
:101EE0000B014FD0002108464FF00000039900F489
:101EF000400039B100EB80004FF4400100EBD0709E
:101F000001EA60008015012802DD4FF0FF3000E09B
:101F100013D0401C36D0029860B3BBF1000F0CD137
:101F20004A460120002100F00DF9284021400843D5
:101F300001D0012000E00020E0B101204A4600214C
:101F400000F000F9034640190A4661412D1A8C4100
:101F500011D3B9F1400F09DD159810F0240F02D00C
:101F6000AAF1340603E0AAF1170600E0761C00256A
:101F70004FF0004406E05B1E42F1FF3220EA030509
:101F800021EA0204CAF10100B04206DA1B490398B3
:101F900008430190002000900EE0039AC4F3D3217F
:101FA000E80A0A43164940EA44500A433146CDE95B
:101FB0000002684604F0F6F8159810F0240F0BD0D4
:101FC0001598C00715D13868DDE90012031D3B6084
:101FD0000068C0E900120CE002A8694604F07CF831
:101FE0001598C00705D13868029A011D396000684C
:101FF00002604046F0E6000002FCFFFF0000F07FB8
:102000000000F03F2DE9FF4F92461D4685B04FF08E
:102010000041DDE9124BDDE914727F1E01EA4B50ED
:10202000414940F0FF4940EA0108002122F0200028
:102030004928049102D04E2828D04CE03BA001262C
:1020400007C88DE80700A9690698641C88477F1EA9
:10205000014606D41DF8060018B121F02001814286
:102060000BD0E96906988847032E34D0082E32D069
:102070006FF0010009B0BDE8F08F761C032E01D08F
:10208000082EE0D1601CCAF80000DCE7A9690698B8
:10209000641C88477F1E2AD420F02000412826D1C6
:1020A000A9690698641C88477F1E20D420F0200070
:1020B0004E281CD1A9690698641C88477F1E48F4E5
:1020C000002849F48009CAF8004001D4282806D025
:1020D000E969069888475FEACB7012D022E0A969C7
:1020E0000698641C88477F1E01D4002803DAE9693A
:1020F00006988847BCE72928F1D1641CCAF800403B
:10210000E9E71BF0240F07D028680499031D2B6012
:102110000068C0E9001805E02868021D2A60006810
:10212000C0F800902046A5E70000F07F494E4649E0
:102130004E4954590000000001491820ABBEFEE78B
:1021400026000200B2F120030AD5C2F1200301FAF1
:1021500002F120FA03F300FA02F041EA03017047AA
:1021600000FA03F14FF00000704770475FEA400C3F
:1021700008BF91F0000F4FEA8C234FEAC12243EAD7
:1021800051514FEA1C5018BF00F5F0404FEA3000A3
:1021900018BF41F000415FEA6C5C00F02980BCF19F
:1021A000FF3F08BF40F080407047130C06BF120489
:1021B0004FF0100C4FF0000C130E04BF12020CF184
:1021C000080C130F04BF12010CF1040C930F04BF91
:1021D00092000CF1020CD30F04BF52000CF1010C61
:1021E00011464FF00002A0F11F00A0EB0C00704759
:1021F00011F0004F08BF704731F000413FF4D5AFF8
:102200000B0C06BF09044FF0100C4FF0000C0B0E26
:1022100004BF09020CF1080C0B0F04BF09010CF1FB
:10222000040C8B0F04BF89000CF1020CCB0F04BF10
:1022300049000CF1010CCCF12003A0EB0C0022FAB8
:1022400003F302FA0CF241EA030100F101007047C6
:1022500020F07F4C80EA030023F07F47ACEB0703BC
:1022600003F57C5300F0004003F1FF032DE98049A2
:102270004FEA154B09B44FEA144325EA0B4E24EA02
:1022800003480FF2042606EB132749083E785FEA5D
:10229000320203FB0667C7F5000707FB06F64FEAA5
:1022A00054374FEAD64606F1020607FB066CCCF11E
:1022B000005C4FEA1C472CEA074C07FB06F40CFBBA
:1022C00006F504EB15464FEA961634BF00204FF092
:1022D00000404FEAD13706FB07FC4FEA1C4C0CFBD1
:1022E0000BF7D21B03FB0CF761EB07010CFB0EF79E
:1022F000B0EB074072EB17420CFB08F734BFA2EBC0
:102300000742B2EB074261EB17414FEA0C444FEA38
:10231000910706FB07FC4FEA1C4C0CFB0BF7B0EBDC
:10232000C74072EB573203FB0CF734BFA2EBC74236
:10233000B2EBC74261EB57310CFB0EF7B0EBC700B5
:1023400072EB57720CFB08F734BFA2EBC702B2EB7B
:10235000C70261EB5771039F4FEA816141EA921115
:1023600004EBCC044FEAD1374FEA826206FB07FC4C
:1023700042EA90124FEA80604FEA1C4C0CFB0BF7CC
:10238000D21B03FB0CF761EB07010CFB0EF7B0EB64
:10239000074072EB17420CFB08F734BFA2EB074271
:1023A000B2EB074261EB17414FEA8C554FEA9107B8
:1023B00004EB9C2406FB07FC4FEA1C4C0CFB0BF7C0
:1023C000B0EBC74072EB573203FB0CF734BFA2EB04
:1023D000C742B2EBC74261EB57310CFB0EF7B0EBD3
:1023E000C70072EB57720CFB08F734BFA2EBC702B1
:1023F000B2EBC70261EB577115EB4C254FEA8161D7
:1024000041EA92114FEA82624FEAD13742EA9012D2
:1024100006FB07FC44F100044FEA80604FEA1C4CC5
:102420000CFB0BF7D21B03FB0CF761EB07010CFB5A
:102430000EF7B0EB074072EB17420CFB08F734BF06
:10244000A2EB0742B2EB074261EB174115EB1C15FB
:102450004FEA813141EA92414FEA823242EA9042A8
:102460004FEA80304FEA0C7644F1000448EA034317
:102470004EEA0B484FF0000EB2EB080C71EB03076D
:1024800024BF624639464EEB0E0E4FF0000B00188B
:10249000524149414BEB0B0BB2EB080C71EB0307BC
:1024A0007BF1000B24BF624639464EEB0E0E4FF017
:1024B000000B0018524149414BEB0B0BB2EB080CDF
:1024C00071EB03077BF1000B24BF624639464EEBEC
:1024D0000E0E51EA020718BF46F0010616EB0E7603
:1024E00055F1000254F1000103D5BDE88901BDE8B2
:1024F0000088BDE88901BDE80048B619524141EBAA
:102500000101A3F10103704780807F7E7D7C7B7A8F
:102510007978777676757473727171706F6E6E6D8F
:102520006C6C6B6A6A696868676666656464636335
:1025300062616160605F5F5E5E5D5D5C5C5B5B5ABB
:102540005A59595858575756565555555454535328
:1025500052525251515050504F4F4F4E4E4D4D4D83
:102560004C4C4C4B4B4B4A4A4A49494948484847CE
:10257000474747464646454545444444444343430C
:10258000434242424241414146EA0646A3F5705366
:102590004FEA164646EA42564FEAD22242EA4152F2
:1025A00010B54FEAD121A3F1010300F02FF820F07C
:1025B000004000F1020C00F0004701EB0050114612
:1025C000BCF5006F40EA070000D210BDBAF1000F61
:1025D0000AD01CB503B44FF004004FF004014FF0D3
:1025E00000000FBCBDE810404FF00001BBF1010F2F
:1025F000B9BF04484FF0FF310348002140EA07000B
:1026000010BD00BFFFFFEF7F0000F07F002B9C4656
:1026100030D477002BD01CB54FEA370703B44FF006
:1026200010004FF01001BAF1000F06D0BCF1000FFE
:10263000DCBF40F0080040F008014FF000000FBC84
:10264000BDE810400BF1010BBBF1010F08BF5FEAC1
:10265000170722BF12F1010211F101014FF00041F1
:1026600043F1000300F0004043EA00007047F9D353
:102670005708D0E746EA064613F1400F4FEA1646E0
:102680001FDD13F1200FDFBF16430A460021203360
:102690005B42BED0C3F1200746EA064602FA07F7BE
:1026A0004FEA164646EA0706C3F1200722FA03F26C
:1026B00001FA07F721FA03F14FF0000342EA07029B
:1026C000A7E746EA020646EA06464FEA164646EA03
:1026D0000106BCBF46EA0646360C4FF000034FF039
:1026E00000024FF0000194E72DE9804C9A46934692
:1026F00070B491E8380007C831EA400C48BF34EAAA
:10270000430C03D5FFF7A4FDFFF780FFF0BCBDE845
:10271000008C2DE9804C9A46934670B491E83800BD
:1027200007C831EA400C48BF34EA430C03D5FFF731
:102730008FFDFFF729FFF0BCBDE8008C2DE9804C30
:102740009A46934670B491E8380007C810F0804F5D
:1027500008BF13F0804F03D100F01AF8FFF756FFBF
:10276000F0BCBDE8008C2DE9804C9A46934670B4CD
:1027700091E8380007C810F0804F08BF13F0804F71
:1027800003D100F005F8FFF7FFFEF0BCBDE8008CB8
:1027900020F07F4780EA030023F07F4C07EB0C0317
:1027A000A3F57C5300F00040A3F1FE0392F0000F6C
:1027B00000F0B38095F0000F00F077802DE901491B
:1027C0004FEA11404FEA144621EA004800FB06FC9C
:1027D00024EA064708FB06F607FB08F800FB07F7A4
:1027E00018EB06484CEB164C4FEA124B18EB074817
:1027F0004FEA15464CEB174022EA0B4E0BFB06FC4A
:1028000025EA06470EFB06F607FB0EFE0BFB07F755
:102810001EEB064E4CEB164C4FF000061EEB074E1F
:102820004CEB174B18EB0B0840F1000018EB0E0BAC
:1028300058EB000840F100008F1A4FF000013CBF38
:10284000C943661B14BFB5EB040C00213CBFC94350
:10285000F61B4FEA17444EEA8E0E27EA04454FEA6C
:102860001C4704FB07622CEA074C05FB07F70CFB2F
:1028700005F604FB0CFC16EB074642EB174216EB81
:102880000C4642EB1C421BEB060658EB0202414190
:1028900046EA9E0601D5BDE80189B619524141EBD1
:1028A0000101A3F10103BDE801894FEA14454FEA94
:1028B000114724EA054621EA074C05FB07F406FB0D
:1028C00007F70CFB06F105FB0CFC11EB074144EB91
:1028D00017444FEA124711EB0C4144EB1C4422EA27
:1028E000074C05FB07F206FB07F70CFB06F605FB9A
:1028F0000CFC16EB074642EB174216EB0C4642EB7C
:102900001C456A1854F1000148BF7047B61952417E
:1029100041EB0101A3F10103704795F0000F37D09F
:102920004FEA11424FEA144721EA024624EA074CD3
:1029300002FB07F106FB07F70CFB06F402FB0CFC9D
:1029400014EB074441EB17414FEA154714EB0C44D5
:1029500041EB1C4125EA074C02FB07F506FB07F794
:102960000CFB06F602FB0CFC16EB074645EB174585
:1029700016EB0C4645EB1C42121951F1000148BF01
:102980007047B619524141EB0101A3F101037047B1
:102990004FEA14454FEA114724EA054621EA074C5D
:1029A00005FB07F106FB07F70CFB06F24FF00006EC
:1029B00005FB0CFC12EB074241EB174112EB0C42FA
:1029C00051EB1C4148BF7047921841EB0101A3F144
:1029D0000103704770B5044600688168C943C907A0
:1029E00017D1816821F00101816001F0A1FC054649
:1029F0000AE000BF01F09CFC401B022804D92068BB
:102A00008068C043C00706D020688068C043C00704
:102A1000F0D0002070BDA06A40F01000A062E06A13
:102A200040F00100E062012070BDFEE710B505A096
:102A300000F0FAFCBDE810404FF0C042104B11A06E
:102A400000F0F2BC20205B4144435D20E5BE85E5FB
:102A5000AE9EE78EB020E2809420E8BF9EE5A5BD43
:102A600020494E4131383020E5908EE9809AE8BF08
:102A70008720444D4120E8AFBBE58F960000000061
:102A800066663A3F2020E5BD93E5898D2043555287
:102A90005F5343414C45203D20252E346620412F75
:102AA0006269740070B50D4D0121284601F02EFCBD
:102AB00048B100240221284601F028FC28B108A2D0
:102AC0002CB108A104E00124F4E706A2F8E704A170
:102AD000BDE8704005A000F0A7BC00000018014050
:102AE0005550000050524553534544002020425455
:102AF0004E313D2573202042544E323D2573000057
:102B000070B50C460546022807DA16A000F08CFCCA
:102B100017A000F089FC22A01FE030A16068FDF73B
:102B2000DFFC70B9032D0CDBA068FDF7EDFB01465F
:102B3000102801D32AA010E02E4880F8C0102EA043
:102B400006E033A16068FDF7CBFC28B1616832A0D4
:102B5000BDE8704000F068BC35A0BDE8704000F0F2
:102B600063BC00002020E794A8E6B3953A0000007B
:102B70002020202063616E206964203C302D313597
:102B80003E202020202020202020E2809420E8AE3B
:102B9000BE2043414E204E6F646520494400000032
:102BA0002020202063616E2073656E64203C696480
:102BB0003E203C64302E2E64373E20E2809420E597
:102BC0008F91E980812043414E20E5B8A72028E578
:102BD000BE85E5AE9EE78EB0290000006964000066
:102BE0002020494420E88C83E59BB420307E313599
:102BF0000000000014000020202043414E204E6FB2
:102C0000646520494420E28692202564000000008B
:102C100073656E64000000002020E69CAAE79FA573
:102C2000E5AD90E591BDE4BBA43A2025730000001A
:102C300020205B43414E5D20E58F91E98081E58A4C
:102C40009FE883BDE5BE85E5AE9EE78EB00000003F
:102C500070B5124D00240121284601F057FB00B940
:102C600001240221284601F051FB08B944F0020476
:102C70000421284601F04AFB08B944F00404082165
:102C8000284601F043FB08B944F008042246BDE899
:102C90007040114602A000F0C7BB000000100140C8
:102CA0002020444950203D202564202830782530BC
:102CB000325829007CB5022804DABDE87C4013A014
:102CC00000F0B2BB4868FDF71FFB0446032818D28A
:102CD000C4B1012C18D0022C13D14007456A2846F4
:102CE00003F062FE164903F077FE164903F09AFDE1
:102CF00003F06CFDCDE900012A46214612A000F048
:102D000093FB7CBD1948E9E71948E7E72020E794E1
:102D1000A8E6B3953A20656E63203C302D323E2004
:102D20002028303D506974636820313DE4B88AE55D
:102D3000A4B920323DE4B88BE5A4B9290000000015
:102D40000000B443000016452020456E635B2564F7
:102D50005D20434E543D256C642020416E676C65B8
:102D60003D252E32662064656700000000040040A7
:102D70000008004070B50AA000F056FB00240E4D7C
:102D800007E000BF05EB800042680CA000F04CFBA0
:102D9000641C04EB440055F820100029F2D170BDEA
:102DA00020202D2D2D20E58FAFE794A8E591BDE4DF
:102DB000BBA4202D2D2D00007C6C00082020252D8B
:102DC000387320E280942025730000002DE9F0473D
:102DD00090B029A000F028FB2DA000F025FB4FF4B7
:102DE000E13134A000F020FB3A4D3BA095F8C01033
:102DF00000F01AFB3EA0D5F8C81000F015FB032127
:102E000040A000F011FB3EA000F00EFB49A000F036
:102E10000BFB4E4A0DAB07CA83E807004B4918224B
:102E20000C3107A8FDF7E1FA00240DF134090DF18A
:102E30001C0AA84608EB8415A86903F0C7FC0646DF
:102E40000F46286903F0C2FCB5F9382002AB0692A0
:102E500083E8C30069785AF8210000902B7859F86C
:102E6000242021463AA000F0DFFA641C032CE1DBA9
:102E700010B0BDE8F087000020202D2D2D20E7B3F5
:102E8000BBE7BB9FE4BFA1E681AF202D2D2D000045
:102E900020204D43553A2020202020202053544DFF
:102EA0003332463130335A45543620402037324D84
:102EB000487A00002020554152543A2020202020FA
:102EC00020555341525431204020256C75206270AA
:102ED0007300000014000020202043414E2049448C
:102EE0003A2020202025642028314D62707329006B
:102EF00020204C6F6F7020436E743A2020256C7533
:102F00000000000020204D6F746F72733A20202063
:102F10002025642028303D506974636820313D5578
:102F2000707065724A617720323D4C6F7765724AE6
:102F30006177290020202D2D2D20E794B5E69CBA3D
:102F4000E78AB6E68081202D2D2D00000C6D00084B
:102F500020205B25645D20252D36733A206D6F643B
:102F6000653D25642073743D257320616E673D25A2
:102F70002E3266206D413D252E30662070776D3DE6
:102F8000256400002DE9F0410E460746022801DACB
:102F900035A007E07068FDF7B7F90446401E042825
:102FA00004D33AA0BDE8F04100F03EBA012C26D08F
:102FB000022C26D0032C26D0042C52D120253846B2
:102FC000374F03280EDB37A1B068FDF789FAE0B16F
:102FD00035A1B068FDF784FAF8B134A1B068FDF707
:102FE0007FFA10B32946384601F090F9002836D010
:102FF00030A22146BDE8F0412FA000F015BA04250B
:10300000DDE70825DBE71025D9E700222946384609
:1030100001F089F921462CA01DE0012229463846FD
:1030200001F081F921462CA015E000260022294656
:10303000384601F078F9962001F05AF80122294625
:10304000384601F070F9962001F052F8761C052EF2
:10305000ECDB214624A0BDE8F04100F0E5B929A24F
:10306000C7E7BDE8F08100002020E794A8E6B3950B
:103070003A206C6564203C312D343E206F6E7C6FAD
:1030800066667C626C696E6B0000000020204C4517
:103090004420E7BC96E58FB720317E340000000065
:1030A000001801406F6E00006F666600626C696E0A
:1030B0006B0000004F46460020204C45442564200C
:1030C0003D2025730000000020204C45442564204D
:1030D0003D204F4E0000000020204C454425642038
:1030E0003D204F464600000020204C4544256420EA
:1030F000E997AAE78381203520E6ACA1E5AE8CE60E
:10310000889000004F4E00002DE9FF470E4605282D
:1031100005DA04B01BA0BDE8F04700F085B970687F
:10312000FDF7F2F8054603282AD2B06803F04CF800
:1031300003F004FA1C4901EB8514E061F06803F028
:1031400043F803F0FBF92062306903F03DF803F027
:10315000F5F900212163606203F038FB804689465F
:10316000206A03F033FB06460F46E06903F02EFBAE
:103170008DE8C00302460B4629460CA000F054F926
:10318000BDE8FF872020E794A8E6B3953A20706950
:1031900064203C302D323E203C6B703E203C6B69FD
:1031A0003E203C6B643E00001400002020204D6F48
:1031B000746F725B25645D205049443A206B703D0A
:1031C000252E3266206B693D252E3466206B643DCA
:1031D000252E32660000000070B50D46032804DA83
:1031E00011A000F021F91DA009E06868FDF78CF836
:1031F0000446A868FDF788F8032C04D31FA0BDE897
:10320000704000F011B9E2B201B2104602F018FCB1
:103210001E48214600EB8410B0F93820BDE870400C
:103220001BA000F001B900002020E794A8E6B395A8
:103230003A2070776D203C302D323E203C6475740E
:10324000793E202028647574793A202D3130303051
:10325000207E202B31303030290000002020303DEE
:1032600050697463682020313DE4B88AE5A4B92030
:1032700020323DE4B88BE5A4B90000002020E980AD
:103280009AE9819320302F312F3200001400002062
:10329000202050574D5B25645D203D2025640000B3
:1032A00009A000F0C1F8642000F022FFBFF34F8FA7
:1032B0000A4801680A4A01F4E06111430160BFF362
:1032C0004F8F00BFFDE700002020E8BDAFE4BBB694
:1032D000E5A48DE4BD8D2E2E2E0000000CED00E047
:1032E0000400FA05154910B5002008708021144823
:1032F000FDF7ADF8124880218030FDF7A8F810499D
:103300000122104802F0AEF80FA000F08DF80FA0D7
:1033100000F08AF818A000F087F821A000F084F8E7
:103320000AA000F081F8274890F8C01026A000F00D
:103330007BF8BDE810402FA000F05EB8020000202E
:103340002C030020E4020020000000003D3D3D3D34
:103350003D3D3D3D3D3D3D3D3D3D3D3D3D3D3D3D9D
:103360003D3D3D3D3D3D3D3D3D3D3D3D3D3D3D3D8D
:103370003D3D3D3D000000002020525354204D6F44
:10338000746F7220436F6E74726F6C6C6572202D57
:1033900020446562756720436F6E736F6C65000033
:1033A000202053544D3332463130335A4554362061
:1033B000207C2020332D41786973204443204D6FB9
:1033C000746F720014000020202043414E204944B5
:1033D0003D256420207C2020E8BE93E585A520685B
:1033E000656C7020E69FA5E79C8BE591BDE4BBA4CE
:1033F000000000003E2000000FB44FF4807100B5C3
:10340000C1B043AB6846429AFCF764FF6846FCF7DC
:1034100088FF82B264236946024802F03BF841B05B
:103420005DF814FBE40200200FB4FE2100B5C1B02A
:1034300043AB6846429AFCF74DFF0D220DF8002081
:10344000401C0A220DF80020401C82B26946642309
:10345000024802F01FF841B05DF814FBE4020020BE
:103460002DE9F0432C488DB00078002847D04FF06C
:10347000000829486A46434616E0401C0178202986
:10348000FBD00929F9D011F0FF0F12D042F8280023
:1034900008F1010800E0401C017851B1202901D059
:1034A0000929F8D100F8013B017811B1B8F10C0FEE
:1034B000E4DBB8F1000F22D00025DFF8609014E0C3
:1034C000009E09E0FCF7F8FE07462078FCF7F4FEC2
:1034D000874209D1641C761C307818B12178002904
:1034E000F0D101E0207868B16D1C05EB450159F879
:1034F0002140002CE4D10AA00099FFF795FF0DB000
:10350000BDE8F08305EB450109EB8100694682685F
:1035100040469047F3E70000AC0300207C6C0008B5
:103520002020E69CAAE79FA5E591BDE4BBA43A2034
:103530002573000001B50A2301226946014801F004
:10354000A9FF08BDE40200202DE9F041254C244EDE
:103550002078355CA5F120075F2F05D22846FFF7BC
:10356000E9FF0D2D1DD001E00D2D14D00A2D18D02E
:10357000082D2FD07F2D2DD05F2F04D220787E28CC
:1035800001D2401C207020783118BDE8F0410122A2
:10359000154801F067BF0D20FFF7CCFF0A20FFF7A9
:1035A000C9FF2278002532B10D49B55401F18000E0
:1035B000521CFCF7D5FE257080210948FCF747FF17
:1035C00007488030007808B1FFF74AFF07A0FFF7EF
:1035D00013FFD8E720780028D5D0401ED2E700009E
:1035E0002C03002002000020E40200203E20000006
:1035F000014800F01BBC000010010020704772B6AB
:10360000FEE70000F8B50024009490F82420254639
:10361000012A12D0012280F824204A681F23072A99
:103620000DD20668776B521E02EB820293409F43D5
:103630000B6893401F43776319E00220F8BD0668CA
:103640000D2A0AD2376BD21F02EB820293409F43AE
:103650000B6893401F43376309E0F76A0D3A02EBAA
:10366000820293409F430B6893401F43F7620A68AE
:10367000072306680A2A0AD3F7680A3A02EB4202CD
:1036800093409F438B6893401F43F76008E037697E
:1036900002EB420293409F438B6893401F43376184
:1036A0000A68102A01D0112A20D1124B02689A42CE
:1036B00017D193681B0219D4936843F400039360F5
:1036C0000968102912D10C490C4A0968B1FBF2F1C2
:1036D00001EB8101490000E0491E00910029FBD166
:1036E00004E0816A41F020018162012480F82450C5
:1036F0002046F8BD002401401000002040420F0089
:103700002DE9F04104004FF000057FD0A06A0026AB
:1037100028B9E66284F82460204600F081F820464B
:10372000FFF758F9A16AC90600D420B1A06A40F099
:103730001000A0626AE0A16A21F4885141F0020100
:10374000A162334923688B42E16904D1B1F5402F6E
:1037500001D14FF40021277B4FF4807C41EA4702DE
:1037600061680A43A168614508D0012906D000219B
:1037700094F814E0BEF1010F02D00AE06146F7E7C9
:10378000C7B1A76A47F02007A762E76A47F00107B9
:10379000E7625F6827F469470F435F6023689968B1
:1037A0001C4F394011439960A16861450BD0012934
:1037B00009D00CE0DFF860E0A7690EEB47370F4354
:1037C00047F40061E5E7218A0D05A5F5801521681C
:1037D000CB6A23F470032B43CB62216889680F4BBB
:1037E0001940914208D1E662A16A21F0020141F03C
:1037F0000101A162BDE8F081A06A20F0020040F062
:103800001000A062E06A40F00100E0620120F1E7F0
:10381000003C0140FDF7E1FF00E0FFFFFE0E1FFF4F
:1038200070B586B000250646009501950295039572
:1038300000681A4988422ED11949886940F40070FD
:103840008861886900F400700490886940F0040081
:1038500088618869694600F004000490382000906F
:10386000032001900F4800F055FC104C0E48C4E9AD
:1038700000058020C4E902504000206180006061A2
:103880002020C4E90605204600F0F4FB08B1FFF74C
:10389000B6FE3462666206B070BD000000240140CE
:1038A0000010024000080140080002401001002002
:1038B00070472DE9F05F0546006800244669D0F89E
:1038C00004908768D0F80CB0D0F810A0D0F8188019
:1038D000F10748D0F90714D001218160B80703D55A
:1038E000284600F0E2F90CE0780702D54FF40064B6
:1038F00007E0380702D54FF4805402E0284600F074
:10390000D3F9F80516D529684FF480708860B8059A
:1039100003D5284600F0CBF90CE0780502D544F435
:10392000005407E0380502D544F4804402E02846FC
:1039300000F0BCF9F80316D529684FF48030886090
:10394000B80303D5284600F0B4F90CE0780302D59B
:1039500044F4004407E0380302D544F4803402E024
:10396000284600F0A5F9300707D55FEACB6004D5FB
:103970002968102044F40074C86070074FF00807ED
:1039800007D55FEA0B7004D52868C760284600F0A9
:1039900059F9B00706D52868C068800702D02846C4
:1039A00000F051F9700607D55FEACA6004D52968AE
:1039B000102044F480640861B00607D55FEA0A70FD
:1039C00004D528680761284600F03EF9F00606D5C0
:1039D00028680069800702D0284600F036F9B00355
:1039E00008D55FEAC96005D52968102048602846D7
:1039F00000F02CF9F00307D55FEA097004D52868B8
:103A00004760284600F056F9300446D55FEA497011
:103A100040D5F00504D55FEAC87001D044F0010438
:103A2000B00504D55FEA887001D544F00204700542
:103A300004D55FEA487001D544F00404300529D567
:103A400018F0700F26D008F07000402815D006DC62
:103A5000102809D020280AD0302816D10AE0502892
:103A60000ED0602811D10EE044F008040DE044F0BF
:103A700010040AE044F0200407E044F0400404E0AD
:103A800044F0800401E044F480742868816921F0E6
:103A900070018161296804204860002C05D0686AA3
:103AA000204368622846FFF703FFBDE8F09F70B52A
:103AB000040003D094F8200010B104E0012070BD90
:103AC000204600F081F82068016841F001010160A2
:103AD00000F02EFC0546052604E000F029FC401B02
:103AE0000A2811D820684068C007F6D0206801680D
:103AF00021F00201016000F01BFC05460BE000F024
:103B000017FC401B0A2806D9606A40F40030606246
:103B100084F82060D2E7206840688007EFD4207ED8
:103B20000128206801683DD021F080010160607E9D
:103B300001282068016838D021F040010160A07E92
:103B400001282068016833D021F020010160E07E67
:103B50000128206801682ED041F010010160207F0B
:103B600001282068016829D021F008010160607FE8
:103B700001282068016824D021F004010160D4E903
:103B800002010843D4E90412114308436168491E45
:103B900008432168C86100206062012084F8200089
:103BA000002070BD41F08001C0E741F04001C5E751
:103BB00041F02001CAE721F01001CFE741F00801F0
:103BC000D4E741F00401D9E710B586B00021009197
:103BD0000191029103910068174988422AD1174840
:103BE000C16941F00071C161C16901F000710491C6
:103BF000816941F0040181618069114C00F0040089
:103C000004904FF4006000906946204600F082FA6C
:103C1000A0140090022001900320039069462046E2
:103C200000F078FA00221146142000F0EDFB142079
:103C300000F0DCFB06B010BD006400400010024044
:103C40000008014070477047704770477047000098
:103C500070B5044690F82000012804D0606A40F452
:103C60000020606218E0022084F8200020680168CB
:103C700021F00101016000F05BFB05460EE000BF92
:103C800000F056FB401B0A2808D9606A40F4003057
:103C90006062052084F82000012070BD2068406823
:103CA000C007EDD1606270BD7047704770477047C4
:103CB00070477047704710B590F821100022022914
:103CC00005D00421816380F82020012010BD016807
:103CD0000B6823F00E030B6001680B6823F00103EF
:103CE0000B6090F84030C46B012101FA03F363606C
:103CF00080F8211080F82020104610BD2DE9F05FDB
:103D000090F821100024022903D0042181630124AA
:103D100085E001680A6822F00E020A6001680A68FC
:103D200022F001020A603F4E3E4FB215DFF8F4C0A8
:103D3000DFF8F090DFF8ECA0DFF8E8B0DFF8E4E0BF
:103D40000168783F13011502ACF1640CA9F1500928
:103D5000AAF13C0AABF1280BAEF1140E4FF4801817
:103D6000B14227D9B9420ED0614512D049451DD084
:103D7000514518D0594518D0714501D1424615E03A
:103D8000294EB14201D1012210E0274E1436B14232
:103D900001D110220AE0244E2836B14206D0224A30
:103DA0003C32914201D11A4600E02A461E49091FC1
:103DB0000A602BE0B94213D0614517D0494522D0A3
:103DC00051451DD059451DD0714501D142461AE0DB
:103DD000B14202D14FF0807215E0134EB14201D1D1
:103DE000012210E0104E1436B14201D110220AE037
:103DF0000D4E2836B14206D00B4A3C32914201D1D9
:103E00001A4600E02A46074980394A60012180F8B5
:103E10002110002180F82010416B01B18847204615
:103E2000BDE8F09F80000240080402402DE9F05FE9
:103E3000C16B0A6801680B68046C4FF0040808FA4B
:103E400004F8844D844E854FDFF814C2DFF81492D5
:103E5000DFF814A2DFF814B2DFF814E218EA020F58
:103E600065D05FEA437862D50A68920603D40A688F
:103E700022F004020A60DFF8F0814FF480620168EA
:103E800008F1140813011402414524D9A9420DD0A8
:103E9000B1420FD0B9421AD0614515D0494515D06D
:103EA000514501D1120312E0594501D104220EE01F
:103EB000714501D140220AE06D4D1435A94206D06A
:103EC0006B4A2832914201D11A4600E022466749E6
:103ED000091F0A6029E0A94213D0B14215D0B942A6
:103EE00020D061451BD049451BD0514502D14FF42C
:103EF000800217E0414502D14FF0806212E059453F
:103F000001D104220EE0714501D140220AE0584D52
:103F10001435A94206D0564A2832914201D11A4698
:103F200000E022464B4908394A60C16A71E04FF00F
:103F3000020808FA04F818EA020F70D05FEA8378E2
:103F40006DD50A68920606D40A6822F00A020A6051
:103F5000012180F82110DFF810814FF40072016810
:103F600008F1140813011402414524D9A9420DD0C7
:103F7000B1420FD0B9421AD0614515D0494515D08C
:103F8000514501D1120312E0594501D102220EE040
:103F9000714501D120220AE0354D1435A94206D0E1
:103FA000334A2832914201D11A4600E022462F4975
:103FB000091F0A6029E0A94213D0B14215D0B942C5
:103FC00020D061451BD049451BD0514502D14FF44B
:103FD000001217E0414502D14FF0007212E059453E
:103FE00001D102220EE0714501D120220AE0204DCC
:103FF0001435A94206D01E4A2832914201D11A46F0
:1040000000E02246134908394A60002180F8201058
:10401000816A00291CD0BDE8F05F0847FFE708254A
:10402000A540154214D01A0712D50A6822F00E02D4
:104030000A6090F84020C36B012101FA02F25A6035
:10404000816380F82110002180F82010016BE0E7E7
:10405000BDE8F09F080002401C0002403000024012
:1040600044000240580002406C0002400804024034
:104070001C04024030B560B11A4B026814219A4208
:1040800009D2194B1344B3FBF1F1890001641749BC
:104090000AE0012030BD134B5B421344B3FBF1F146
:1040A000890001640F490839C163022180F8211099
:1040B000136843F6F0718B43F0E901142143D0E912
:1040C00002452C4321430469214344692143846907
:1040D0002143194311600021416301224277017796
:1040E000084630BD08040240F8FFFDBF0000024052
:1040F00070B5044600F01CF90546601C02D0044867
:104100000078044400F014F9401BA042FAD370BDBB
:10411000040000202DE9F84FDFF8C8910024A9F130
:10412000040B23460F2709F1040AABF1040ED1E07A
:104130000125A54006EA0502AA4276D1DFF8A8C10A
:104140004E68A6EB0C0866452BD00DDC032E34D050
:1041500005DC36B3012E19D0022E2FD11BE0112E13
:1041600016D0122E2AD119E0B8F5881F19D006DC16
:10417000B8F5803F15D0B8F5801F1FD111E0B8F514
:10418000001F0ED0B8F5041F18D10AE0CB6815E067
:10419000CB681B1D12E0CB6808330FE0CB680C33F3
:1041A0000CE08B682BB1012B4FF0080303D0456165
:1041B00004E0042302E0056100E00023FF2A01D8A7
:1041C000064601E000F104064FEA840501D9A5F195
:1041D0002005D6F8008007FA05FC28EA0C0803FA47
:1041E00005F548EA0508C6F800804D68ED0070D571
:1041F0003E4DAE6946F00106AE61AD6924F003069E
:1042000005F0010500953A4D06EB050CDCF8085069
:10421000A607360F07FA06F825EA0805DFF8D48066
:10422000404503D14FF0000825E052E0DFF8C88098
:10423000404502D14FF001081DE0DFF8C080404545
:1042400002D14FF0020816E0DFF8B480404502D1F9
:104250004FF003080FE0DFF8AC80404502D14FF08B
:10426000040808E0DFF8A080404502D14FF00508BF
:1042700001E04FF0060808FA06F848EA0508CCF80D
:1042800008804D68D9F80060ED024D4601D516430F
:1042900000E096432E604D68DAF80060AD025546A6
:1042A00001D5164300E096432E604D68DBF80060B0
:1042B000AD035D4601D5164300E096432E604D6880
:1042C000DEF80060ED03754601D5164300E0964325
:1042D0002E60641C0A681646E2407FF429AFBDE8F0
:1042E000F88F000008040140000011100010024087
:1042F0000000014000080140000C01400010014096
:104300000014014000180140001C01408068084072
:1043100000D001207047C26821EA02030A4043EA44
:104320000241016170470AB1016170470904FBE76E
:10433000014880687047000004000020024881683E
:10434000027811448160704704000020074810B5CE
:10435000016841F010010160032000F075F80F20A2
:1043600000F006F800F024F8002010BD0020024004
:1043700070B50D4D04464FF47A712878B1FBF0F01A
:104380000A490968B1FBF0F000F052FB48B9102C63
:1043900007D200222146501E00F036F800206C6043
:1043A00070BD012070BD000004000020100000203E
:1043B0000C4808B5816941F001018161816901F012
:1043C00001010091C16941F08051C161C06900F0F3
:1043D000805000900448416821F0E06141F0007194
:1043E000416008BD0010024000000140002809DBC8
:1043F00000F01F02012191404009800000F1E020FF
:10440000C0F8001170470000F0B40E4B1B680C465A
:10441000C3F30223C3F10705042D00D90425191D98
:10442000072901D2002300E0DB1E012606FA05F170
:10443000491E214099409E40761E16403143F0BCF3
:1044400001F02BBE0CED00E0064900F00702086801
:104450004FF6FF03184040EA0220034A1043086069
:10446000704700000CED00E00000FA052DE9F8436C
:1044700005460078354CC00754D0E0690026C000DE
:1044800008D4E06940F08050E061E069012600F066
:10449000805000902E480168C90512D401688046FA
:1044A00041F480710160FFF743FF074605E000BF5C
:1044B000FFF73EFFC01B642823D8D8F80000C005D2
:1044C000F6D5206A10F4407021D0A98801F440711B
:1044D00081421CD0206A1F49012220F440700A60EA
:1044E00000220A602062C00711D0FFF721FF0746B3
:1044F00041F2883808E000BFFFF71AFFC11B4145B1
:1045000002D90320BDE8F883206A8007F4D5206A29
:10451000696820F44070084320621EB1E06920F011
:104520008050E0612878800705D56068A96820F48C
:104530004040084360602878C00605D56068696916
:1045400020F48000084360600020DBE70010024098
:1045500000700040400442422DE9F0470F4605003C
:1045600061D0434E306800F00700B84209D230688D
:1045700020F0070038433060306800F00700B84290
:1045800051D128683B4C810712D5400703D560689C
:1045900040F4E06060602878000703D5606840F46C
:1045A000605060606068A96820F0F00008436060B7
:1045B0002878C00728D06868012810D02168022810
:1045C00010D0890700292EDA616821F00301014328
:1045D0006160FFF7ADFE804641F288390DE0216849
:1045E0008903EFE78901EDE7FFF7A2FEA0EB0801E1
:1045F000494502D90320BDE8F0876068696800F08A
:104600000C00B0EB810FEFD1306800F00700B8422A
:104610000BD9306820F0070038433060306800F074
:104620000700B84201D00120E5E72878400705D50A
:104630006068E96820F4E06008436060287800075B
:1046400006D56068296920F4605040EAC1006060C6
:1046500000F038F86168084AC1F30311515CC840A2
:104660000649086006480068FFF782FE0020C2E79E
:104670000020024000100240426D0008100000209F
:10468000080000200448054900684968044AC1F34D
:104690000221515CC8407047100000200010024009
:1046A000526D00080448054900684968044AC1F38E
:1046B000C221515CC8407047100000200010024029
:1046C000526D00080E4A51680E4801F00C03042B8D
:1046D00011D0082B0FD10C48C1F38343C903C05C30
:1046E0000AD55168084AC1F34041921E515C054AFF
:1046F0005043B0FBF1F07047044948437047000055
:104700000010024000127A00326D000800093D00DE
:104710002DE9F84F040070D02078C04DC00749D073
:104720006868C0F38100012807D06868C0F3810081
:10473000022809D16868C00306D52868800339D5E6
:1047400060680028E7D035E06068B0F5803F0BD0A6
:1047500010B1B0F5A02F11D0286820F48030286067
:10476000286820F4802002E0286840F48030286027
:10477000606890B1FFF7DCFD06460AE0286840F467
:1047800080202860F0E700BFFFF7D2FD801B64287F
:1047900073D828688003F7D50CE0FFF7C9FD0646FB
:1047A00005E000BFFFF7C4FD801B6428F0D828682F
:1047B0008003F7D420789A4E80074FF001094FF01C
:1047C000000839D5686810F00C0F07D06868C0F38E
:1047D0008100022809D16868C00306D428688007D0
:1047E00014D52069012808D110E02069B0B1C6F8BD
:1047F0000090FFF79DFD074605E00AE1FFF798FDF1
:10480000C01B0228C4D828688007F7D528686169CA
:1048100020F0F80040EAC10028600DE0C6F80080F2
:10482000FFF786FD074604E0FFF782FDC01B022864
:1048300023D828688007F7D4207800072CD579483A
:10484000A169D9B1C0F80090FFF772FD074604E0F6
:10485000FFF76EFDC01B02280FD8686A8007F7D5E6
:1048600071484FF4FA510068B0FBF1F0009000BFBE
:104870000098411E0091FAD20EE080E0C0F800805E
:10488000FFF756FD074604E0FFF752FDC01B022864
:1048900075D8686A8007F7D42078400760D5E86942
:1048A0000027C00008D4E86940F08050E861E8695A
:1048B000012700F0805000905C480168C90513D4BE
:1048C0000168834641F480710160FFF731FD824643
:1048D00006E000BFFFF72CFDA0EB0A0064284ED8CD
:1048E000DBF80000C005F5D5E06801280AD008B162
:1048F000052813D0286A20F001002862286A20F0D9
:10490000040002E0286A40F001002862E06841F2F9
:10491000883B98B1FFF70CFD82460BE0286A40F017
:1049200004002862EEE700BFFFF702FDA0EB0A01DA
:1049300059455AD8286A8007F6D50CE0FFF7F8FCED
:10494000824605E0FFF7F4FCA0EB0A0159454CD87C
:10495000286A8007F6D41FB1E86920F08050E8612A
:10496000E06988B36968C1F38101022944D0022853
:10497000C6F8608004D0FFF7DBFC044638E034E082
:10498000FFF7D6FC074604E0FFF7D2FCC01B022865
:104990002BD828688001F7D4206AB0F5803F05D174
:1049A0006868A16820F4003008436860D4E9080111
:1049B0000843696821F4741108436860C6F8609080
:1049C000FFF7B6FC044606E025E000BFFFF7B0FCA9
:1049D000001B022809D828688001F7D51BE000BF1A
:1049E000FFF7A6FC001B022802D90320BDE8F88FC0
:1049F00028688001F4D40EE00128F7D06868226AA4
:104A000000F48031914204D1616A00F47010884250
:104A100001D00120EAE70020E8E700000010024092
:104A2000000042428004424210000020007000401A
:104A300010B5401EB0F1807F01D3012010BD4FF0B2
:104A4000E02460610F21601701F027FB0020A061C6
:104A500007202061002010BD10B590F83C20012AED
:104A600022D0012280F83C20CA688C6822F440726F
:104A700022434C6822F4806222430C6822F40062D4
:104A800022430C6922F4805222434C6922F40052E2
:104A90002243C969002322F480420A4301684A6420
:104AA00080F83C30002010BD022010BD70B590F899
:104AB0003C20012A2CD0012480F83C40022280F8BE
:104AC0003D2003685A689D6822F070060A683243E8
:104AD0005A60104B02689A420ED00F4B9A420BD08C
:104AE000B2F1804F08D00D4B9A4205D00C4B9A4240
:104AF00002D00C4B9A4204D1496825F08003194337
:104B0000916080F83D40002180F83C10084670BD5F
:104B1000022070BD002C0140003401400004004020
:104B200000080040000C004010B5040003D094F8C9
:104B30003D0010B107E0012010BD002084F83C00CA
:104B4000204600F01FF8022084F83D00211D206857
:104B500000F0EEFF012084F8460084F83E0084F85F
:104B60003F0084F8400084F8410084F8420084F853
:104B7000430084F8440084F8450084F83D00002098
:104B800010BD000008B50C4A01680C48914207D1DD
:104B9000816941F400618161806900F4006009E08D
:104BA000074A914207D1816941F4005181618069CE
:104BB00000F40050009008BD002C0140001002409D
:104BC0000034014070B5044690F83C0000250128EF
:104BD00017D0012684F83C60022084F83D0020684C
:104BE000826822F0770222F47F42826008685028AF
:104BF00038D00DDC20284FD005DC90B3102811D11F
:104C00004AE0022070BD302846D040280AD13BE05F
:104C100060282FD070280DD0B0F5805F03D0B0F59C
:104C2000005F12D0012584F83D60002084F83C002C
:104C3000284670BDCB68D1E90121206800F0D3FF80
:104C40002068816841F0770109E0CB68D1E9012152
:104C5000206800F0C8FF2068816841F480418160CD
:104C6000E1E719E0CA684968206801F091F850212D
:104C7000206806E0CA684968206801F09AF8602157
:104C8000206800F0BAFFCEE7CA684968206801F0E2
:104C90007FF840212068F4E7226801461046F0E7DB
:104CA0002DE9F0410D46040003D094F83D0018B101
:104CB00008E00120BDE8F081002084F83C00204697
:104CC00000F040F8022084F83D002068816844F23A
:104CD000070291438160211D206800F029FF2268AE
:104CE00090689169166A2B68AF69034340F20330FC
:104CF000814341EA0721A868EF6908434FF6FC4168
:104D00008843E96840EA0720014328692F6A0001C7
:104D100040EA0730084369686D6926F0220646EAD2
:104D20000515294393602268906154F8460B01628F
:104D3000012004F81F09E0752076E0762077A07541
:104D40000020B7E700B585B00021009101910291E4
:104D50000391026829492A48B2F1804F19D0294BA2
:104D60009A4228D1CA6942F00202CA61CA6902F0B5
:104D7000020204928A6942F004028A61896901F0A0
:104D800004010491C02100916946FFF7C3F905B001
:104D900000BDCA6942F00102CA61CA6902F001029B
:104DA00004928A6942F004028A61896901F004016F
:104DB00004910321E7E714488242E8D1C86940F032
:104DC0000400C861C86900F004000490886940F0DC
:104DD000200088618869694600F0200004904FF443
:104DE000405000900948FFF795F90948416841F0A3
:104DF000E06141F480514160C9E7000000100240C9
:104E00000008014000040040000800400014014078
:104E10000000014070B590F83E60044690F83F50A5
:104E200090F8423090F84320022021B104290ED09E
:104E3000012E1BD114E0012E18D1012B16D184F8BC
:104E40003E0084F8420001220021206820E0012D6C
:104E50000CD1012A0AD184F83F0084F8430014E001
:104E6000012D03D1012B01D1012A01D0012070BDF8
:104E700084F83E0084F83F0084F8420084F8430040
:104E800001220021206800F0A1FE012204212068F7
:104E900000F09CFE2068016841F0010101600020E3
:104EA00070BD000000B585B0002100910191029114
:104EB00003911A4B02681A4802219A421AD1826958
:104EC00042F0400282618069039100F0400004904A
:104ED0000802CDE9000169461248FFF71BF91248A4
:104EE000416821F0C00141F0E06141F0C001416042
:104EF00005B000BD0D4B9A42FAD1826942F0100212
:104F000082618069039100F010000490C020CDE917
:104F1000000169460648FFF7FDF8E9E7002C01406B
:104F20000010024000180140000001400034014020
:104F30000010014070B5044690F83C0000260D4674
:104F400001280FD0012084F83C006AB1042A1DD04A
:104F5000082A2FD00C2A3FD00126002084F83C00DC
:104F6000304670BD022070BD206800F04FFE206802
:104F7000816941F0080181612068816921F00401A3
:104F80008161206881692A69114311E0206800F07D
:104F90006DFE2068816941F400618161206881694A
:104FA00021F480618161206881692A6941EA0221D6
:104FB0008161D2E7206800F08FFE2068C16941F06E
:104FC0000801C1612068C16921F00401C161206844
:104FD000C1692A69114311E0206800F0B1FE206820
:104FE000C16941F40061C1612068C16921F4806137
:104FF000C1612068C1692A6941EA0221C161ACE747
:1050000010B5040003D094F83D0010B107E0012072
:1050100010BD002084F83C00204600F01EF802205D
:1050200084F83D00211D206800F082FD012084F8F5
:10503000460084F83E0084F83F0084F8400084F87D
:10504000410084F8420084F8430084F8440084F866
:10505000450084F83D00002010BD704710B504469F
:10506000022249B104290ED0082913D094F8410036
:10507000012816D0012010BD94F83E000128F9D176
:1050800084F83E200FE094F83F000128F2D184F824
:105090003F2008E094F840000128EBD184F840203C
:1050A00001E084F841200122206800F08FFD1349BF
:1050B0002068134A884201D0904203D1436C43F4E4
:1050C00000434364206888420DD090420BD0B0F179
:1050D000804F08D00B49884205D00B49884202D046
:1050E0000A49884204D1816801F00701062903D0EA
:1050F000016841F001010160002010BD002C014059
:10510000003401400004004000080040000C004052
:1051100070477047F8B5016804460868CA684B696B
:1051200010F00F0F4FF0000559D003F0010602F404
:105130009077374365D0C10705D0D10503D5616CA1
:1051400041F001016164410705D5D90703D0616CC5
:1051500041F002016164810705D5D90703D0616C74
:1051600041F004016164010707D502F020013143D9
:1051700003D0616C41F008016164616C00293AD090
:10518000800604D5900602D5204600F053FE206824
:105190004069616CC0F38010090700D460B32046F9
:1051A00000F021FE20684069400621D520681430B7
:1051B00050E8001F21F0400140E80012002AF5D11C
:1051C000E06BA8B16D494163E06BFEF797FD0028E5
:1051D00011D0E06B416B01B0BDE8F0400847830699
:1051E0000FD593060DD52046BDE8F84000F022BE4D
:1051F0002046FFF78EFFF8BD2046FFF78AFF656463
:10520000F8BD266B2023012E7CD1C6067AD5D606A2
:1052100078D508684868009048694FF00206400653
:1052200040D5E16B086840680004000CE8D0A28D0E
:105230008242E5D9E085886920282DD020680C308D
:1052400050E8001F21F4807140E80012002AF5D1D7
:105250002068143050E8001F21F0010140E80012DE
:10526000002AF5D12068143050E8001F21F04001D9
:1052700040E80012002AF5D184F842302563206806
:105280000C3050E8001F21F0100140E80012002A05
:10529000F5D1E06BFEF70FFD6663A08DE18D401A3E
:1052A00081B22AE0A08DE18D401A81B2E08D002804
:1052B000A6D00029A4D022680C3252E8000F20F4B6
:1052C000907042E80007002FF5D12068143050E8B4
:1052D000002F22F0010240E80027002FF5D184F8CA
:1052E0004230256320680C3050E8002F22F0100275
:1052F00040E80023002BF5D166632046FFF708FF46
:10530000F8BDFFE705062BD5150629D594F8410011
:105310002128F5D1A068B0F5805F01D12069B0B136
:10532000206A411C2162216800784860E08C401EA0
:105330000004000CE084E3D12068C16821F0800102
:10534000C1602068C16841F04001C160D8E7206AAF
:105350000088C0F308004860206A801C2062E5E7EE
:105360004006CDD55006CBD5CA68204622F0400273
:10537000CA6084F8413000F0DDF8C1E7D75D00086D
:1053800070B5040004D094F84100002510B106E087
:10539000012070BD84F84050204600F023F82420FE
:1053A00084F841002068C16821F40051C1602046A2
:1053B00000F0A2FD2068016921F49041016120689C
:1053C000416921F02A0141612068C16841F400511E
:1053D000C1606564202084F8410084F84200656360
:1053E000002070BD30B585B0002400940194029473
:1053F00003940068184988422CD11848816941F407
:1054000080418161816901F480410491816941F0A9
:10541000040181618069124D00F0040004904FF492
:1054200000700090022001900320039069462846F6
:10543000FEF770FE2815CDE900046946284602945F
:10544000FEF768FE002211462520FEF7DDFF25202D
:10545000FEF7CCFF05B030BD00380140001002401F
:105460000008014090F84230202B01D00220704704
:1054700021B11AB10023036300F09ABD01207047E7
:1054800000680349884201D1FEF75EB8704700000A
:10549000003801402DE9F843044690F84100984651
:1054A00016460D46202802D00220BDE8F88385B1BB
:1054B0007EB100206064212084F84100FEF738FFAF
:1054C000A6848146E684A0682027B0F5805F02D0DC
:1054D00003E00120E9E7206910B12E4600250EE027
:1054E00000260CE08021204600F07DFDA8B9C6B161
:1054F00016F8010B21684860E08C401EE084E08CC7
:105500004B464FF00002CDF800800028EAD14FF062
:105510004001204600F067FD40B184F8417003204F
:10552000C3E735F8020BC0F30800E3E784F84170E5
:105530000020BAE77047FEE73EB500241B48009400
:1055400001941949029401608915816004730475FE
:10555000032505614FF460214460C161FEF7D0F876
:1055600008B1FEF74CF8042000900120CDE90104B9
:1055700069460E48FEF746F808B1FEF740F80220EB
:10558000CDE9005069460948FEF73CF808B1FEF73E
:1055900036F8694605480195FEF734F8002801D031
:1055A000FEF72DF83EBD000000240140E000002081
:1055B0000F4810B50D4901600421416000214FF4EE
:1055C00040228160C0E903124FF4801242610176EB
:1055D00041768176C17601774177FEF768FA002837
:1055E00003D0BDE81040FEF70AB810BD00640040CB
:1055F00054010020094808B5416941F001014161A9
:105600004069002200F00100009011460B20FEF7D7
:10561000FBFEBDE808400B20FEF7E8BE001002408C
:10562000F0B5284885B0816941F010018161816938
:1056300001F010010491816941F0040181618169E7
:1056400001F004010491816941F0400181618169A7
:1056500001F040010491816941F02001816181697B
:1056600001F020010491816941F0080181618069A4
:10567000012400F0080004903C20CDE9000402263B
:10568000114FCDE90246002569463846FEF742FD36
:105690000320CDE90005694602943846FEF73AFD3D
:1056A0000F20CDE90005694602940848FEF732FD57
:1056B00047F223008DE8710069460548FEF72AFD90
:1056C00005B0F0BD0010024000180140001001407C
:1056D000000C014010B596B000240F941094119462
:1056E000129413941C2108A81494FAF7D2FE2021D6
:1056F0006846FAF7CEFE2848264901604721C0E9EE
:10570000011440F2E731C0E9031444618461FFF7FA
:105710000BFA08B1FDF773FF4FF480500F900FA9FB
:105720001D48FFF74FFA08B1FDF769FF1A48FFF768
:1057300067FC08B1FDF763FF139413A9164814948E
:10574000FFF7B4F908B1FDF75AFF6020CDE908046E
:105750000A940B940C940D94002208A90E480E9400
:10576000FFF7E8FB08B1FDF74AFF00944FF4005043
:10577000CDE90440029401940394694606480794D5
:10578000FFF76AF908B1FDF73AFF0348FFF78AFB14
:1057900016B010BD002C01407C01002010B58CB06B
:1057A00024216846FAF775FE0024164809944FF044
:1057B00080410A94C0E900144FF6FF71C0E902412C
:1057C000046184610320CDE900040120CDE90204D5
:1057D00008210491CDE90540CDE907416946094812
:1057E000FFF75EFA08B1FDF70AFF099409A9054819
:1057F0000A94FFF75BF9002801D0FDF700FF0CB019
:1058000010BD0000C401002010B58CB024216846F2
:10581000FAF73FFE00241648099414490A94C0E997
:1058200000144FF6FF71C0E9024104618461032056
:10583000CDE900040120CDE9020408210491CDE95D
:105840000540CDE9074169460948FFF729FA08B143
:10585000FDF7D5FE099409A905480A94FFF726F932
:10586000002801D0FDF7CBFE0CB010BD00040040B5
:105870000C02002010B58CB024216846FAF709FE0E
:1058800000241648099414490A94C0E900144FF6FC
:10589000FF71C0E90241046184610320CDE9000485
:1058A0000120CDE9020408210491CDE90540CDE9AC
:1058B000074169460948FFF7F3F908B1FDF79FFE74
:1058C000099409A905480A94FFF7F0F8002801D0C7
:1058D000FDF795FE0CB010BD0008004054020020FA
:1058E00010B596B000240F94109411941294139450
:1058F0001C2168461494FAF7CCFD202107A8FAF77A
:10590000C8FD2C482A4901604721C0E9011440F232
:10591000E731C0E9031444618461FFF705F908B178
:10592000FDF76DFE4FF480500F900FA92148FFF74F
:1059300049F908B1FDF763FE1E48FFF761FB08B1A6
:10594000FDF75DFE139413A91A481494FFF7AEF8FF
:1059500008B1FDF754FE6020CDE9000402940394E1
:10596000049405940022694612480694FFF7E2FA6F
:1059700008B1FDF744FE042269460E48FFF7DAFA43
:1059800008B1FDF73CFE0794089409944FF40050C9
:105990000A94CDE90B4007A906480E94FFF75CF87E
:1059A00008B1FDF72CFE0348FFF77CFA16B010BDD6
:1059B000003401409C0200200C4810B50A490160E7
:1059C0004FF4E1314160002181600C22C160C0E9E7
:1059D00004128161C161FFF7D3FC002803D0BDE848
:1059E0001040FDF70CBE10BD00380140E40200205D
:1059F000FEE7000070B5114C0A4660B101280DD0D9
:105A0000022819D1010345035AB101222046FEF7AD
:105A10008AFC00220AE001210225F5E72021CD01C0
:105A2000F2E700222046FEF77EFC012229462046AE
:105A3000BDE87040FEF777BC70BD0000000C01406F
:105A40002DE9F04107464FF47A700C46814202DCA2
:105A50004042844200DA0446012010EBE47101D098
:105A6000204600E0604285B27FB1012F0FD0022FA7
:105A700009D10A4E3846FFF7BDFF306885630848F4
:105A800000EB87100487BDE8F081064E00E0034E6E
:105A90003846FFF7AFFF30684563F0E79C0200200F
:105AA000140000207C010020FEE770477047FEF7DD
:105AB00045BC30B595B028216846FAF7EAFC1421B8
:105AC0000AA8FAF7E6FC18210FA8FAF7E2FC012170
:105AD0000804CDE900100025029502240491CDE9C7
